:10000000D2B575890111DD113220B50811F21173D5
:10001000C2A0800611F211A8D2A0111E80E7780FAD
:10002000758C00758A00D28C308DFDC28CC28DD843
:10003000EF22744D3104746F3104746931047473A8
:10004000310474743104747531047472310474654C
:1000500031047420310474433104746F3104746EBC
:1000600031047474310474723104746F3104746C2B
:10007000310422745B310474303104744B310474E4
:100080005D3104742031047450310474753104748A
:100090006D3104747031047420310474303104748F
:1000A0004631047446310422745B3104744C3104CB
:1000B000746F310474773104745D31047420310439
:1000C0007450310474753104746D310474703104EA
:1000D0007420310474303104744E310422740C11D4
:1000E000F7740111F7740611F7748011F7743C115D
:1000F000F72274C011F722F580C2A7C2B6D2A5C2FA
:10010000A5310422F580D2A7C2B6D2A5C2A531047A
:1001100022C2A5C2A7D2B67580FFD2A5E58020E78E
:06012000F0C2A5C2B622E8
:00000001FF
